:100000000C9446000C9465000C9465000C946500FB
:100010000C9465000C9465000C9465000C946500CC
:100020000C9465000C9465000C9465000C946500BC
:100030000C9465000C94B2010C9465000C9465005E
:100040000C9465000C9465000C9465000C9465009C
:100050000C9465000C9465000C9465000C9465008C
:100060000C9465000C9465000C9465000C9465007C
:100070000C9465000C9465000C9465000C9465006C
:100080000C9465000C9465000C94650011241FBE4F
:10009000CFEFD0E4DEBFCDBF11E0A0E0B1E0E8EFEC
:1000A000F7E000E00BBF02C007900D92A232B1074B
:1000B000D9F721E0A2E2B1E001C01D92A932B20756
:1000C000E1F70E949E030C94EC030C940000CF9384
:1000D000DF93CDB7DEB781E00E948E000000DF9194
:1000E000CF910895CF93DF93CDB7DEB784E690E04C
:1000F0000E94330188E30E948E0086E00E948E00F9
:100100008FE00E948E0081E00E948E008AE090E0E5
:100110000E9433010000DF91CF910895CF93DF93C8
:100120000F92CDB7DEB789838BE290E0FC0120818E
:100130008BE290E02F7BFC01208388E290E0298114
:10014000FC0120838BE290E0FC0120818BE290E0B7
:100150002068FC01208300008BE290E0FC012081FC
:100160008BE290E02F77FC01208382E090E00E94F8
:10017000330100000F90DF91CF910895CF93DF936B
:100180000F92CDB7DEB789838BE290E0FC0120812E
:100190008BE290E02064FC01208388E290E02981DA
:1001A000FC0120838BE290E0FC0120818BE290E057
:1001B0002068FC01208300008BE290E0FC0120819C
:1001C0008BE290E02F77FC01208381E090E00E9499
:1001D000330100000F90DF91CF910895CF93DF930B
:1001E00000D000D0CDB7DEB78A837C836B830E94BA
:1001F00067008A81898311C0898191E0980F998372
:100200000E941C018B819C819C012F5F3F4F3C838E
:100210002B83FC0180810E94BE008B819C81FC01AC
:100220008081882349F7000000000F900F900F9005
:100230000F90DF91CF910895CF93DF930F92CDB7B9
:10024000DEB789838981813128F4898181580E94B0
:100250008E0004C0898181550E948E0000000F909D
:10026000DF91CF910895CF93DF9300D000D000D0DD
:10027000CDB7DEB79E838D831A82198213C01C828C
:100280001B8206C000008B819C8101969C838B831E
:100290008B819C8187309340ACF389819A81019650
:1002A0009A83898329813A818D819E812817390714
:1002B00034F30000000026960FB6F894DEBF0FBEA0
:1002C000CDBFDF91CF910895CF93DF93CDB7DEB748
:1002D00081E890E02BE0FC01208388E890E02DE7A6
:1002E00030E0FC01318320838FE690E022E0FC01C6
:1002F000208384E890E0FC0111821082809100014B
:1003000090910101A0910201B0910301809323011A
:1003100090932401A0932501B09326018FE590E0EE
:10032000FC0120818FE590E02068FC012083000023
:10033000DF91CF910895CF93DF93CDB7DEB781E8FA
:1003400090E0FC0110820000DF91CF910895CF93DF
:10035000DF93CDB7DEB781E0809322010000DF910B
:10036000CF9108951F920F920FB60F9211240BB6E2
:100370000F922F933F934F935F936F937F938F933E
:100380009F93AF93BF93EF93FF93CF93DF93CDB73B
:10039000DEB78091230190912401A0912501B091B5
:1003A00026010197A109B1098093230190932401AB
:1003B000A0932501B09326018091230190912401FF
:1003C000A0912501B0912601892B8A2B8B2B91F4CA
:1003D0000E94A7018091000190910101A09102016A
:1003E000B09103018093230190932401A0932501F0
:1003F000B09326010000DF91CF91FF91EF91BF9163
:10040000AF919F918F917F916F915F914F913F91AC
:100410002F910F900BBE0F900FBE0F901F9018954D
:10042000CF93DF9300D000D0CDB7DEB769837A8356
:100430008B839C8389819A81AB81BC8180930001ED
:1004400090930101A0930201B093030180910001F8
:1004500090910101A0910201B091030180932301C9
:1004600090932401A0932501B093260100000F90E2
:100470000F900F900F90DF91CF910895CF93DF935E
:1004800000D00F92CDB7DEB789837B836A838981E1
:100490008A3031F48A819B81BC018DE00E943E024A
:1004A00080EC90E0FC018081882F90E08072992799
:1004B000892BB1F386EC90E02981FC01208380E058
:1004C00090E00F900F900F90DF91CF910895CF9310
:1004D000DF9300D0CDB7DEB79A8389830E9467008F
:1004E0008981805D0E94BE0000000F900F90DF9117
:1004F000CF910895CF93DF93CDB7DEB780912701D9
:1005000090912801CC01A0E0B0E087309105A105D1
:10051000B10508F0BDC082519C4FFC010C94E3036F
:1005200080E290E0FC018081882F90E08170992723
:10053000892B29F41092280110922701AEC081E086
:1005400090E09093280180932701A7C080E290E07B
:10055000FC018081882F90E081709927892B61F4BC
:1005600085E090E09093280180932701809112010B
:1005700081508093120191C082E090E09093280115
:10058000809327018AC080E290E0FC018081882F5F
:1005900090E081709927892B61F485E090E0909339
:1005A000280180932701809112018F5F80931201AF
:1005B00074C083E090E090932801809327016DC080
:1005C00080E290E0FC018081882F90E08170992783
:1005D000892B61F485E090E09093280180932701B6
:1005E0008091120181508093120157C084E090E005
:1005F000909328018093270150C080E290E0FC0195
:100600008081882F90E081709927892B61F485E0A3
:1006100090E09093280180932701809112018F5FD1
:10062000809312013AC081E090E09093280180937A
:10063000270133C080E290E0FC018081882F90E0A8
:1006400081709927892B39F485E090E090932801F7
:100650008093270122C086E090E090932801809348
:1006600027011BC080E290E0FC018081882F90E090
:1006700081709927892B29F4109228011092270163
:100680000CC086E090E0909328018093270105C07C
:10069000109228011092270100008091270190916B
:1006A0002801CC01A0E0B0E087309105A105B1059B
:1006B000D0F58B509C4FFC010C94E30385E290E055
:1006C00021E0FC01208380911201882F90E00E949C
:1006D000670230C085E290E021E0FC0120832AC05F
:1006E00085E290E022E0FC01208324C085E290E0D6
:1006F00024E0FC0120831EC085E290E022E0FC01A2
:10070000208318C080911201893031F463E171E0D7
:1007100081E00E94EE000EC080911201882F90E0CF
:100720000E94670207C085E290E021E0FC0120837F
:1007300001C000000000DF91CF910895CF93DF93B7
:10074000CDB7DEB781E290E0FC01108282E290E05A
:100750002FEFFC01208384E290E02FEFFC01208347
:1007600085E290E0FC01108287E290E02FEFFC012F
:10077000208388E290E0FC0110828AE290E02FEF73
:10078000FC0120838BE290E0FC0110826CE271E0BE
:1007900080E090E00E9410020E94640185E290E0F7
:1007A00021E0FC0120830E94720085E090E00E941D
:1007B00067020000809122018823E1F31092220158
:1007C0000E947A02F6CFEE0FFF1F0024001C0BBE22
:1007D0000790F691E02D0994F894FFCF9002A602BD
:1007E000C302E002FD021A0332035E036A037003D0
:0807F00076037C0382039903E8
:1007F8000100000000000002000000003E020000AE
:1008080000000539202D20566963746F7279212103
:020818000000DE
:00000001FF
